{
	"bucles.sol": {
		"bucles": {
			"abi": [
				{
					"inputs": [
						{
							"internalType": "uint256",
							"name": "_numero",
							"type": "uint256"
						}
					],
					"name": "establecerNumero",
					"outputs": [],
					"stateMutability": "nonpayable",
					"type": "function"
				},
				{
					"inputs": [],
					"name": "mensaje",
					"outputs": [
						{
							"internalType": "string",
							"name": "",
							"type": "string"
						}
					],
					"stateMutability": "view",
					"type": "function"
				},
				{
					"inputs": [],
					"name": "numero",
					"outputs": [
						{
							"internalType": "uint256",
							"name": "",
							"type": "uint256"
						}
					],
					"stateMutability": "view",
					"type": "function"
				}
			],
			"devdoc": {
				"kind": "dev",
				"methods": {},
				"version": 1
			},
			"evm": {
				"assembly": "    /* \"bucles.sol\":86:570  contract bucles {... */\n  mstore(0x40, 0x80)\n  callvalue\n  dup1\n  iszero\n  tag_1\n  jumpi\n  0x00\n  dup1\n  revert\ntag_1:\n  pop\n  dataSize(sub_0)\n  dup1\n  dataOffset(sub_0)\n  0x00\n  codecopy\n  0x00\n  return\nstop\n\nsub_0: assembly {\n        /* \"bucles.sol\":86:570  contract bucles {... */\n      mstore(0x40, 0x80)\n      callvalue\n      dup1\n      iszero\n      tag_1\n      jumpi\n      0x00\n      dup1\n      revert\n    tag_1:\n      pop\n      jumpi(tag_2, lt(calldatasize, 0x04))\n      shr(0xe0, calldataload(0x00))\n      dup1\n      0x2fdbbb9b\n      eq\n      tag_3\n      jumpi\n      dup1\n      0x91f5de38\n      eq\n      tag_4\n      jumpi\n      dup1\n      0xc85077bc\n      eq\n      tag_5\n      jumpi\n    tag_2:\n      0x00\n      dup1\n      revert\n        /* \"bucles.sol\":232:567  function mensaje() public view returns (string memory) {... */\n    tag_3:\n      tag_6\n      tag_7\n      jump\t// in\n    tag_6:\n      mload(0x40)\n      tag_8\n      swap2\n      swap1\n      tag_9\n      jump\t// in\n    tag_8:\n      mload(0x40)\n      dup1\n      swap2\n      sub\n      swap1\n      return\n        /* \"bucles.sol\":109:130  uint256 public numero */\n    tag_4:\n      tag_10\n      tag_11\n      jump\t// in\n    tag_10:\n      mload(0x40)\n      tag_12\n      swap2\n      swap1\n      tag_13\n      jump\t// in\n    tag_12:\n      mload(0x40)\n      dup1\n      swap2\n      sub\n      swap1\n      return\n        /* \"bucles.sol\":139:224  function establecerNumero(uint256 _numero) public {... */\n    tag_5:\n      tag_14\n      0x04\n      dup1\n      calldatasize\n      sub\n      dup2\n      add\n      swap1\n      tag_15\n      swap2\n      swap1\n      tag_16\n      jump\t// in\n    tag_15:\n      tag_17\n      jump\t// in\n    tag_14:\n      stop\n        /* \"bucles.sol\":232:567  function mensaje() public view returns (string memory) {... */\n    tag_7:\n        /* \"bucles.sol\":272:285  string memory */\n      0x60\n        /* \"bucles.sol\":311:313  18 */\n      0x12\n        /* \"bucles.sol\":302:308  numero */\n      sload(0x00)\n        /* \"bucles.sol\":302:313  numero > 18 */\n      gt\n        /* \"bucles.sol\":298:560  if (numero > 18) {... */\n      iszero\n      tag_19\n      jumpi\n        /* \"bucles.sol\":330:373  return \"puedes ingresar eres mayor de edad\" */\n      mload(0x40)\n      dup1\n      0x60\n      add\n      0x40\n      mstore\n      dup1\n      0x22\n      dup2\n      mstore\n      0x20\n      add\n      data_5796a70ee1c967e5c618bc47b6575be9943cc2f98d5bc3aefea0987817b0ffe3\n      0x22\n      swap2\n      codecopy\n      swap1\n      pop\n      jump(tag_18)\n        /* \"bucles.sol\":298:560  if (numero > 18) {... */\n    tag_19:\n        /* \"bucles.sol\":405:407  18 */\n      0x12\n        /* \"bucles.sol\":395:401  numero */\n      sload(0x00)\n        /* \"bucles.sol\":395:407  numero == 18 */\n      sub\n        /* \"bucles.sol\":391:560  if (numero == 18) {... */\n      tag_21\n      jumpi\n        /* \"bucles.sol\":424:469  return \"acabas de cumplir 18 puedes ingresar\" */\n      mload(0x40)\n      dup1\n      0x60\n      add\n      0x40\n      mstore\n      dup1\n      0x24\n      dup2\n      mstore\n      0x20\n      add\n      data_6fc55acdb6b4bc0ac1883693b5077aef17788ffc12b752015ae6d92ae42109fe\n      0x24\n      swap2\n      codecopy\n      swap1\n      pop\n      jump(tag_18)\n        /* \"bucles.sol\":391:560  if (numero == 18) {... */\n    tag_21:\n        /* \"bucles.sol\":502:548  return \"eres menor de edad no puedes ingresar\" */\n      mload(0x40)\n      dup1\n      0x60\n      add\n      0x40\n      mstore\n      dup1\n      0x25\n      dup2\n      mstore\n      0x20\n      add\n      data_4eff98c1914aca878f7f3fbad4b42d90cf41d8b8623ee28c12d879158d2e8bf1\n      0x25\n      swap2\n      codecopy\n      swap1\n      pop\n        /* \"bucles.sol\":232:567  function mensaje() public view returns (string memory) {... */\n    tag_18:\n      swap1\n      jump\t// out\n        /* \"bucles.sol\":109:130  uint256 public numero */\n    tag_11:\n      sload(0x00)\n      dup2\n      jump\t// out\n        /* \"bucles.sol\":139:224  function establecerNumero(uint256 _numero) public {... */\n    tag_17:\n        /* \"bucles.sol\":209:216  _numero */\n      dup1\n        /* \"bucles.sol\":200:206  numero */\n      0x00\n        /* \"bucles.sol\":200:216  numero = _numero */\n      dup2\n      swap1\n      sstore\n      pop\n        /* \"bucles.sol\":139:224  function establecerNumero(uint256 _numero) public {... */\n      pop\n      jump\t// out\n        /* \"#utility.yul\":7:106   */\n    tag_24:\n        /* \"#utility.yul\":59:65   */\n      0x00\n        /* \"#utility.yul\":93:98   */\n      dup2\n        /* \"#utility.yul\":87:99   */\n      mload\n        /* \"#utility.yul\":77:99   */\n      swap1\n      pop\n        /* \"#utility.yul\":7:106   */\n      swap2\n      swap1\n      pop\n      jump\t// out\n        /* \"#utility.yul\":112:281   */\n    tag_25:\n        /* \"#utility.yul\":196:207   */\n      0x00\n        /* \"#utility.yul\":230:236   */\n      dup3\n        /* \"#utility.yul\":225:228   */\n      dup3\n        /* \"#utility.yul\":218:237   */\n      mstore\n        /* \"#utility.yul\":270:274   */\n      0x20\n        /* \"#utility.yul\":265:268   */\n      dup3\n        /* \"#utility.yul\":261:275   */\n      add\n        /* \"#utility.yul\":246:275   */\n      swap1\n      pop\n        /* \"#utility.yul\":112:281   */\n      swap3\n      swap2\n      pop\n      pop\n      jump\t// out\n        /* \"#utility.yul\":287:426   */\n    tag_26:\n        /* \"#utility.yul\":376:382   */\n      dup3\n        /* \"#utility.yul\":371:374   */\n      dup2\n        /* \"#utility.yul\":366:369   */\n      dup4\n        /* \"#utility.yul\":360:383   */\n      mcopy\n        /* \"#utility.yul\":417:418   */\n      0x00\n        /* \"#utility.yul\":408:414   */\n      dup4\n        /* \"#utility.yul\":403:406   */\n      dup4\n        /* \"#utility.yul\":399:415   */\n      add\n        /* \"#utility.yul\":392:419   */\n      mstore\n        /* \"#utility.yul\":287:426   */\n      pop\n      pop\n      pop\n      jump\t// out\n        /* \"#utility.yul\":432:534   */\n    tag_27:\n        /* \"#utility.yul\":473:479   */\n      0x00\n        /* \"#utility.yul\":524:526   */\n      0x1f\n        /* \"#utility.yul\":520:527   */\n      not\n        /* \"#utility.yul\":515:517   */\n      0x1f\n        /* \"#utility.yul\":508:513   */\n      dup4\n        /* \"#utility.yul\":504:518   */\n      add\n        /* \"#utility.yul\":500:528   */\n      and\n        /* \"#utility.yul\":490:528   */\n      swap1\n      pop\n        /* \"#utility.yul\":432:534   */\n      swap2\n      swap1\n      pop\n      jump\t// out\n        /* \"#utility.yul\":540:917   */\n    tag_28:\n        /* \"#utility.yul\":628:631   */\n      0x00\n        /* \"#utility.yul\":656:695   */\n      tag_42\n        /* \"#utility.yul\":689:694   */\n      dup3\n        /* \"#utility.yul\":656:695   */\n      tag_24\n      jump\t// in\n    tag_42:\n        /* \"#utility.yul\":711:782   */\n      tag_43\n        /* \"#utility.yul\":775:781   */\n      dup2\n        /* \"#utility.yul\":770:773   */\n      dup6\n        /* \"#utility.yul\":711:782   */\n      tag_25\n      jump\t// in\n    tag_43:\n        /* \"#utility.yul\":704:782   */\n      swap4\n      pop\n        /* \"#utility.yul\":791:856   */\n      tag_44\n        /* \"#utility.yul\":849:855   */\n      dup2\n        /* \"#utility.yul\":844:847   */\n      dup6\n        /* \"#utility.yul\":837:841   */\n      0x20\n        /* \"#utility.yul\":830:835   */\n      dup7\n        /* \"#utility.yul\":826:842   */\n      add\n        /* \"#utility.yul\":791:856   */\n      tag_26\n      jump\t// in\n    tag_44:\n        /* \"#utility.yul\":881:910   */\n      tag_45\n        /* \"#utility.yul\":903:909   */\n      dup2\n        /* \"#utility.yul\":881:910   */\n      tag_27\n      jump\t// in\n    tag_45:\n        /* \"#utility.yul\":876:879   */\n      dup5\n        /* \"#utility.yul\":872:911   */\n      add\n        /* \"#utility.yul\":865:911   */\n      swap2\n      pop\n        /* \"#utility.yul\":632:917   */\n      pop\n        /* \"#utility.yul\":540:917   */\n      swap3\n      swap2\n      pop\n      pop\n      jump\t// out\n        /* \"#utility.yul\":923:1236   */\n    tag_9:\n        /* \"#utility.yul\":1036:1040   */\n      0x00\n        /* \"#utility.yul\":1074:1076   */\n      0x20\n        /* \"#utility.yul\":1063:1072   */\n      dup3\n        /* \"#utility.yul\":1059:1077   */\n      add\n        /* \"#utility.yul\":1051:1077   */\n      swap1\n      pop\n        /* \"#utility.yul\":1123:1132   */\n      dup2\n        /* \"#utility.yul\":1117:1121   */\n      dup2\n        /* \"#utility.yul\":1113:1133   */\n      sub\n        /* \"#utility.yul\":1109:1110   */\n      0x00\n        /* \"#utility.yul\":1098:1107   */\n      dup4\n        /* \"#utility.yul\":1094:1111   */\n      add\n        /* \"#utility.yul\":1087:1134   */\n      mstore\n        /* \"#utility.yul\":1151:1229   */\n      tag_47\n        /* \"#utility.yul\":1224:1228   */\n      dup2\n        /* \"#utility.yul\":1215:1221   */\n      dup5\n        /* \"#utility.yul\":1151:1229   */\n      tag_28\n      jump\t// in\n    tag_47:\n        /* \"#utility.yul\":1143:1229   */\n      swap1\n      pop\n        /* \"#utility.yul\":923:1236   */\n      swap3\n      swap2\n      pop\n      pop\n      jump\t// out\n        /* \"#utility.yul\":1242:1319   */\n    tag_29:\n        /* \"#utility.yul\":1279:1286   */\n      0x00\n        /* \"#utility.yul\":1308:1313   */\n      dup2\n        /* \"#utility.yul\":1297:1313   */\n      swap1\n      pop\n        /* \"#utility.yul\":1242:1319   */\n      swap2\n      swap1\n      pop\n      jump\t// out\n        /* \"#utility.yul\":1325:1443   */\n    tag_30:\n        /* \"#utility.yul\":1412:1436   */\n      tag_50\n        /* \"#utility.yul\":1430:1435   */\n      dup2\n        /* \"#utility.yul\":1412:1436   */\n      tag_29\n      jump\t// in\n    tag_50:\n        /* \"#utility.yul\":1407:1410   */\n      dup3\n        /* \"#utility.yul\":1400:1437   */\n      mstore\n        /* \"#utility.yul\":1325:1443   */\n      pop\n      pop\n      jump\t// out\n        /* \"#utility.yul\":1449:1671   */\n    tag_13:\n        /* \"#utility.yul\":1542:1546   */\n      0x00\n        /* \"#utility.yul\":1580:1582   */\n      0x20\n        /* \"#utility.yul\":1569:1578   */\n      dup3\n        /* \"#utility.yul\":1565:1583   */\n      add\n        /* \"#utility.yul\":1557:1583   */\n      swap1\n      pop\n        /* \"#utility.yul\":1593:1664   */\n      tag_52\n        /* \"#utility.yul\":1661:1662   */\n      0x00\n        /* \"#utility.yul\":1650:1659   */\n      dup4\n        /* \"#utility.yul\":1646:1663   */\n      add\n        /* \"#utility.yul\":1637:1643   */\n      dup5\n        /* \"#utility.yul\":1593:1664   */\n      tag_30\n      jump\t// in\n    tag_52:\n        /* \"#utility.yul\":1449:1671   */\n      swap3\n      swap2\n      pop\n      pop\n      jump\t// out\n        /* \"#utility.yul\":1758:1875   */\n    tag_32:\n        /* \"#utility.yul\":1867:1868   */\n      0x00\n        /* \"#utility.yul\":1864:1865   */\n      dup1\n        /* \"#utility.yul\":1857:1869   */\n      revert\n        /* \"#utility.yul\":2004:2126   */\n    tag_34:\n        /* \"#utility.yul\":2077:2101   */\n      tag_57\n        /* \"#utility.yul\":2095:2100   */\n      dup2\n        /* \"#utility.yul\":2077:2101   */\n      tag_29\n      jump\t// in\n    tag_57:\n        /* \"#utility.yul\":2070:2075   */\n      dup2\n        /* \"#utility.yul\":2067:2102   */\n      eq\n        /* \"#utility.yul\":2057:2120   */\n      tag_58\n      jumpi\n        /* \"#utility.yul\":2116:2117   */\n      0x00\n        /* \"#utility.yul\":2113:2114   */\n      dup1\n        /* \"#utility.yul\":2106:2118   */\n      revert\n        /* \"#utility.yul\":2057:2120   */\n    tag_58:\n        /* \"#utility.yul\":2004:2126   */\n      pop\n      jump\t// out\n        /* \"#utility.yul\":2132:2271   */\n    tag_35:\n        /* \"#utility.yul\":2178:2183   */\n      0x00\n        /* \"#utility.yul\":2216:2222   */\n      dup2\n        /* \"#utility.yul\":2203:2223   */\n      calldataload\n        /* \"#utility.yul\":2194:2223   */\n      swap1\n      pop\n        /* \"#utility.yul\":2232:2265   */\n      tag_60\n        /* \"#utility.yul\":2259:2264   */\n      dup2\n        /* \"#utility.yul\":2232:2265   */\n      tag_34\n      jump\t// in\n    tag_60:\n        /* \"#utility.yul\":2132:2271   */\n      swap3\n      swap2\n      pop\n      pop\n      jump\t// out\n        /* \"#utility.yul\":2277:2606   */\n    tag_16:\n        /* \"#utility.yul\":2336:2342   */\n      0x00\n        /* \"#utility.yul\":2385:2387   */\n      0x20\n        /* \"#utility.yul\":2373:2382   */\n      dup3\n        /* \"#utility.yul\":2364:2371   */\n      dup5\n        /* \"#utility.yul\":2360:2383   */\n      sub\n        /* \"#utility.yul\":2356:2388   */\n      slt\n        /* \"#utility.yul\":2353:2472   */\n      iszero\n      tag_62\n      jumpi\n        /* \"#utility.yul\":2391:2470   */\n      tag_63\n      tag_32\n      jump\t// in\n    tag_63:\n        /* \"#utility.yul\":2353:2472   */\n    tag_62:\n        /* \"#utility.yul\":2511:2512   */\n      0x00\n        /* \"#utility.yul\":2536:2589   */\n      tag_64\n        /* \"#utility.yul\":2581:2588   */\n      dup5\n        /* \"#utility.yul\":2572:2578   */\n      dup3\n        /* \"#utility.yul\":2561:2570   */\n      dup6\n        /* \"#utility.yul\":2557:2579   */\n      add\n        /* \"#utility.yul\":2536:2589   */\n      tag_35\n      jump\t// in\n    tag_64:\n        /* \"#utility.yul\":2526:2589   */\n      swap2\n      pop\n        /* \"#utility.yul\":2482:2599   */\n      pop\n        /* \"#utility.yul\":2277:2606   */\n      swap3\n      swap2\n      pop\n      pop\n      jump\t// out\n    stop\n    data_4eff98c1914aca878f7f3fbad4b42d90cf41d8b8623ee28c12d879158d2e8bf1 65726573206d656e6f722064652065646164206e6f2070756564657320696e677265736172\n    data_5796a70ee1c967e5c618bc47b6575be9943cc2f98d5bc3aefea0987817b0ffe3 70756564657320696e6772657361722065726573206d61796f722064652065646164\n    data_6fc55acdb6b4bc0ac1883693b5077aef17788ffc12b752015ae6d92ae42109fe 6163616261732064652063756d706c69722031382070756564657320696e677265736172\n\n    auxdata: 0xa264697066735822122021df29df7e84cfbefac2f0dd2a3d6f372a0e60bda47e82d4d96048d81797310e64736f6c634300081a0033\n}\n",
				"bytecode": {
					"linkReferences": {},
					"object": "6080604052348015600e575f80fd5b506102d88061001c5f395ff3fe608060405234801561000f575f80fd5b506004361061003f575f3560e01c80632fdbbb9b1461004357806391f5de3814610061578063c85077bc1461007f575b5f80fd5b61004b61009b565b604051610058919061018d565b60405180910390f35b61006961010f565b60405161007691906101c5565b60405180910390f35b6100996004803603810190610094919061020c565b610114565b005b606060125f5411156100c75760405180606001604052806022815260200161025d60229139905061010c565b60125f54036100f05760405180606001604052806024815260200161027f60249139905061010c565b6040518060600160405280602581526020016102386025913990505b90565b5f5481565b805f8190555050565b5f81519050919050565b5f82825260208201905092915050565b8281835e5f83830152505050565b5f601f19601f8301169050919050565b5f61015f8261011d565b6101698185610127565b9350610179818560208601610137565b61018281610145565b840191505092915050565b5f6020820190508181035f8301526101a58184610155565b905092915050565b5f819050919050565b6101bf816101ad565b82525050565b5f6020820190506101d85f8301846101b6565b92915050565b5f80fd5b6101eb816101ad565b81146101f5575f80fd5b50565b5f81359050610206816101e2565b92915050565b5f60208284031215610221576102206101de565b5b5f61022e848285016101f8565b9150509291505056fe65726573206d656e6f722064652065646164206e6f2070756564657320696e67726573617270756564657320696e6772657361722065726573206d61796f7220646520656461646163616261732064652063756d706c69722031382070756564657320696e677265736172a264697066735822122021df29df7e84cfbefac2f0dd2a3d6f372a0e60bda47e82d4d96048d81797310e64736f6c634300081a0033",
					"opcodes": "PUSH1 0x80 PUSH1 0x40 MSTORE CALLVALUE DUP1 ISZERO PUSH1 0xE JUMPI PUSH0 DUP1 REVERT JUMPDEST POP PUSH2 0x2D8 DUP1 PUSH2 0x1C PUSH0 CODECOPY PUSH0 RETURN INVALID PUSH1 0x80 PUSH1 0x40 MSTORE CALLVALUE DUP1 ISZERO PUSH2 0xF JUMPI PUSH0 DUP1 REVERT JUMPDEST POP PUSH1 0x4 CALLDATASIZE LT PUSH2 0x3F JUMPI PUSH0 CALLDATALOAD PUSH1 0xE0 SHR DUP1 PUSH4 0x2FDBBB9B EQ PUSH2 0x43 JUMPI DUP1 PUSH4 0x91F5DE38 EQ PUSH2 0x61 JUMPI DUP1 PUSH4 0xC85077BC EQ PUSH2 0x7F JUMPI JUMPDEST PUSH0 DUP1 REVERT JUMPDEST PUSH2 0x4B PUSH2 0x9B JUMP JUMPDEST PUSH1 0x40 MLOAD PUSH2 0x58 SWAP2 SWAP1 PUSH2 0x18D JUMP JUMPDEST PUSH1 0x40 MLOAD DUP1 SWAP2 SUB SWAP1 RETURN JUMPDEST PUSH2 0x69 PUSH2 0x10F JUMP JUMPDEST PUSH1 0x40 MLOAD PUSH2 0x76 SWAP2 SWAP1 PUSH2 0x1C5 JUMP JUMPDEST PUSH1 0x40 MLOAD DUP1 SWAP2 SUB SWAP1 RETURN JUMPDEST PUSH2 0x99 PUSH1 0x4 DUP1 CALLDATASIZE SUB DUP2 ADD SWAP1 PUSH2 0x94 SWAP2 SWAP1 PUSH2 0x20C JUMP JUMPDEST PUSH2 0x114 JUMP JUMPDEST STOP JUMPDEST PUSH1 0x60 PUSH1 0x12 PUSH0 SLOAD GT ISZERO PUSH2 0xC7 JUMPI PUSH1 0x40 MLOAD DUP1 PUSH1 0x60 ADD PUSH1 0x40 MSTORE DUP1 PUSH1 0x22 DUP2 MSTORE PUSH1 0x20 ADD PUSH2 0x25D PUSH1 0x22 SWAP2 CODECOPY SWAP1 POP PUSH2 0x10C JUMP JUMPDEST PUSH1 0x12 PUSH0 SLOAD SUB PUSH2 0xF0 JUMPI PUSH1 0x40 MLOAD DUP1 PUSH1 0x60 ADD PUSH1 0x40 MSTORE DUP1 PUSH1 0x24 DUP2 MSTORE PUSH1 0x20 ADD PUSH2 0x27F PUSH1 0x24 SWAP2 CODECOPY SWAP1 POP PUSH2 0x10C JUMP JUMPDEST PUSH1 0x40 MLOAD DUP1 PUSH1 0x60 ADD PUSH1 0x40 MSTORE DUP1 PUSH1 0x25 DUP2 MSTORE PUSH1 0x20 ADD PUSH2 0x238 PUSH1 0x25 SWAP2 CODECOPY SWAP1 POP JUMPDEST SWAP1 JUMP JUMPDEST PUSH0 SLOAD DUP2 JUMP JUMPDEST DUP1 PUSH0 DUP2 SWAP1 SSTORE POP POP JUMP JUMPDEST PUSH0 DUP2 MLOAD SWAP1 POP SWAP2 SWAP1 POP JUMP JUMPDEST PUSH0 DUP3 DUP3 MSTORE PUSH1 0x20 DUP3 ADD SWAP1 POP SWAP3 SWAP2 POP POP JUMP JUMPDEST DUP3 DUP2 DUP4 MCOPY PUSH0 DUP4 DUP4 ADD MSTORE POP POP POP JUMP JUMPDEST PUSH0 PUSH1 0x1F NOT PUSH1 0x1F DUP4 ADD AND SWAP1 POP SWAP2 SWAP1 POP JUMP JUMPDEST PUSH0 PUSH2 0x15F DUP3 PUSH2 0x11D JUMP JUMPDEST PUSH2 0x169 DUP2 DUP6 PUSH2 0x127 JUMP JUMPDEST SWAP4 POP PUSH2 0x179 DUP2 DUP6 PUSH1 0x20 DUP7 ADD PUSH2 0x137 JUMP JUMPDEST PUSH2 0x182 DUP2 PUSH2 0x145 JUMP JUMPDEST DUP5 ADD SWAP2 POP POP SWAP3 SWAP2 POP POP JUMP JUMPDEST PUSH0 PUSH1 0x20 DUP3 ADD SWAP1 POP DUP2 DUP2 SUB PUSH0 DUP4 ADD MSTORE PUSH2 0x1A5 DUP2 DUP5 PUSH2 0x155 JUMP JUMPDEST SWAP1 POP SWAP3 SWAP2 POP POP JUMP JUMPDEST PUSH0 DUP2 SWAP1 POP SWAP2 SWAP1 POP JUMP JUMPDEST PUSH2 0x1BF DUP2 PUSH2 0x1AD JUMP JUMPDEST DUP3 MSTORE POP POP JUMP JUMPDEST PUSH0 PUSH1 0x20 DUP3 ADD SWAP1 POP PUSH2 0x1D8 PUSH0 DUP4 ADD DUP5 PUSH2 0x1B6 JUMP JUMPDEST SWAP3 SWAP2 POP POP JUMP JUMPDEST PUSH0 DUP1 REVERT JUMPDEST PUSH2 0x1EB DUP2 PUSH2 0x1AD JUMP JUMPDEST DUP2 EQ PUSH2 0x1F5 JUMPI PUSH0 DUP1 REVERT JUMPDEST POP JUMP JUMPDEST PUSH0 DUP2 CALLDATALOAD SWAP1 POP PUSH2 0x206 DUP2 PUSH2 0x1E2 JUMP JUMPDEST SWAP3 SWAP2 POP POP JUMP JUMPDEST PUSH0 PUSH1 0x20 DUP3 DUP5 SUB SLT ISZERO PUSH2 0x221 JUMPI PUSH2 0x220 PUSH2 0x1DE JUMP JUMPDEST JUMPDEST PUSH0 PUSH2 0x22E DUP5 DUP3 DUP6 ADD PUSH2 0x1F8 JUMP JUMPDEST SWAP2 POP POP SWAP3 SWAP2 POP POP JUMP INVALID PUSH6 0x726573206D65 PUSH15 0x6F722064652065646164206E6F2070 PUSH22 0x6564657320696E67726573617270756564657320696E PUSH8 0x7265736172206572 PUSH6 0x73206D61796F PUSH19 0x20646520656461646163616261732064652063 PUSH22 0x6D706C69722031382070756564657320696E67726573 PUSH2 0x72A2 PUSH5 0x6970667358 0x22 SLT KECCAK256 0x21 0xDF 0x29 0xDF PUSH31 0x84CFBEFAC2F0DD2A3D6F372A0E60BDA47E82D4D96048D81797310E64736F6C PUSH4 0x4300081A STOP CALLER "
				},
				"gasEstimates": {
					"creation": {
						"codeDepositCost": "145600",
						"executionCost": "188",
						"totalCost": "145788"
					},
					"external": {
						"establecerNumero(uint256)": "22536",
						"mensaje()": "infinite",
						"numero()": "2424"
					}
				},
				"methodIdentifiers": {
					"establecerNumero(uint256)": "c85077bc",
					"mensaje()": "2fdbbb9b",
					"numero()": "91f5de38"
				}
			},
			"storageLayout": {
				"storage": [
					{
						"astId": 3,
						"contract": "bucles.sol:bucles",
						"label": "numero",
						"offset": 0,
						"slot": "0",
						"type": "t_uint256"
					}
				],
				"types": {
					"t_uint256": {
						"encoding": "inplace",
						"label": "uint256",
						"numberOfBytes": "32"
					}
				}
			},
			"userdoc": {
				"kind": "user",
				"methods": {},
				"version": 1
			}
		}
	}
}